{
  "_format": "hh-sol-artifact-1",
  "contractName": "Donations",
  "sourceName": "contracts/Donations.sol",
  "abi": [
    {
      "inputs": [],
      "stateMutability": "nonpayable",
      "type": "constructor"
    },
    {
      "inputs": [],
      "name": "allDonators",
      "outputs": [
        {
          "internalType": "address[]",
          "name": "",
          "type": "address[]"
        }
      ],
      "stateMutability": "view",
      "type": "function"
    },
    {
      "inputs": [],
      "name": "balance",
      "outputs": [
        {
          "internalType": "uint256",
          "name": "",
          "type": "uint256"
        }
      ],
      "stateMutability": "view",
      "type": "function"
    },
    {
      "inputs": [],
      "name": "donate",
      "outputs": [],
      "stateMutability": "payable",
      "type": "function"
    },
    {
      "inputs": [
        {
          "internalType": "address",
          "name": "",
          "type": "address"
        }
      ],
      "name": "donations",
      "outputs": [
        {
          "internalType": "uint256",
          "name": "",
          "type": "uint256"
        }
      ],
      "stateMutability": "view",
      "type": "function"
    },
    {
      "inputs": [],
      "name": "name",
      "outputs": [
        {
          "internalType": "string",
          "name": "",
          "type": "string"
        }
      ],
      "stateMutability": "view",
      "type": "function"
    },
    {
      "inputs": [],
      "name": "owner",
      "outputs": [
        {
          "internalType": "address",
          "name": "",
          "type": "address"
        }
      ],
      "stateMutability": "view",
      "type": "function"
    },
    {
      "inputs": [
        {
          "internalType": "address payable",
          "name": "withdrawAddress",
          "type": "address"
        },
        {
          "internalType": "uint256",
          "name": "amount",
          "type": "uint256"
        }
      ],
      "name": "withdraw",
      "outputs": [],
      "stateMutability": "nonpayable",
      "type": "function"
    },
    {
      "inputs": [
        {
          "internalType": "address payable",
          "name": "withdrawAddress",
          "type": "address"
        }
      ],
      "name": "withdrawAll",
      "outputs": [],
      "stateMutability": "nonpayable",
      "type": "function"
    }
  ],
  "bytecode": "0x60806040526040518060400160405280601981526020017f446f6e6174696f6e73207175616c696679696e67207461736b000000000000008152506000908051906020019061004f9291906100a3565b5034801561005c57600080fd5b5033600160006101000a81548173ffffffffffffffffffffffffffffffffffffffff021916908373ffffffffffffffffffffffffffffffffffffffff1602179055506101a7565b8280546100af90610175565b90600052602060002090601f0160209004810192826100d15760008555610118565b82601f106100ea57805160ff1916838001178555610118565b82800160010185558215610118579182015b828111156101175782518255916020019190600101906100fc565b5b5090506101259190610129565b5090565b5b8082111561014257600081600090555060010161012a565b5090565b7f4e487b7100000000000000000000000000000000000000000000000000000000600052602260045260246000fd5b6000600282049050600182168061018d57607f821691505b602082108114156101a1576101a0610146565b5b50919050565b610b29806101b66000396000f3fe60806040526004361061007b5760003560e01c8063cc6cb19a1161004e578063cc6cb19a1461012c578063ed88c68e14610169578063f3fef3a314610173578063fa09e6301461019c5761007b565b806306fdde0314610080578063091bc310146100ab5780638da5cb5b146100d6578063b69ef8a814610101575b600080fd5b34801561008c57600080fd5b506100956101c5565b6040516100a291906106da565b60405180910390f35b3480156100b757600080fd5b506100c0610253565b6040516100cd91906107ec565b60405180910390f35b3480156100e257600080fd5b506100eb6102e1565b6040516100f8919061081d565b60405180910390f35b34801561010d57600080fd5b50610116610307565b6040516101239190610851565b60405180910390f35b34801561013857600080fd5b50610153600480360381019061014e919061089d565b61030f565b6040516101609190610851565b60405180910390f35b610171610327565b005b34801561017f57600080fd5b5061019a60048036038101906101959190610934565b61048c565b005b3480156101a857600080fd5b506101c360048036038101906101be9190610974565b610567565b005b600080546101d2906109d0565b80601f01602080910402602001604051908101604052809291908181526020018280546101fe906109d0565b801561024b5780601f106102205761010080835404028352916020019161024b565b820191906000526020600020905b81548152906001019060200180831161022e57829003601f168201915b505050505081565b606060048054806020026020016040519081016040528092919081815260200182805480156102d757602002820191906000526020600020905b8160009054906101000a900473ffffffffffffffffffffffffffffffffffffffff1673ffffffffffffffffffffffffffffffffffffffff168152602001906001019080831161028d575b5050505050905090565b600160009054906101000a900473ffffffffffffffffffffffffffffffffffffffff1681565b600047905090565b60026020528060005260406000206000915090505481565b34600260003373ffffffffffffffffffffffffffffffffffffffff1673ffffffffffffffffffffffffffffffffffffffff16815260200190815260200160002060008282546103769190610a31565b92505081905550600360003373ffffffffffffffffffffffffffffffffffffffff1673ffffffffffffffffffffffffffffffffffffffff16815260200190815260200160002060009054906101000a900460ff1661048a576001600360003373ffffffffffffffffffffffffffffffffffffffff1673ffffffffffffffffffffffffffffffffffffffff16815260200190815260200160002060006101000a81548160ff0219169083151502179055506004339080600181540180825580915050600190039060005260206000200160009091909190916101000a81548173ffffffffffffffffffffffffffffffffffffffff021916908373ffffffffffffffffffffffffffffffffffffffff1602179055505b565b600160009054906101000a900473ffffffffffffffffffffffffffffffffffffffff1673ffffffffffffffffffffffffffffffffffffffff163373ffffffffffffffffffffffffffffffffffffffff161461051c576040517f08c379a000000000000000000000000000000000000000000000000000000000815260040161051390610ad3565b60405180910390fd5b8173ffffffffffffffffffffffffffffffffffffffff166108fc829081150290604051600060405180830381858888f19350505050158015610562573d6000803e3d6000fd5b505050565b600160009054906101000a900473ffffffffffffffffffffffffffffffffffffffff1673ffffffffffffffffffffffffffffffffffffffff163373ffffffffffffffffffffffffffffffffffffffff16146105f7576040517f08c379a00000000000000000000000000000000000000000000000000000000081526004016105ee90610ad3565b60405180910390fd5b8073ffffffffffffffffffffffffffffffffffffffff166108fc479081150290604051600060405180830381858888f1935050505015801561063d573d6000803e3d6000fd5b5050565b600081519050919050565b600082825260208201905092915050565b60005b8381101561067b578082015181840152602081019050610660565b8381111561068a576000848401525b50505050565b6000601f19601f8301169050919050565b60006106ac82610641565b6106b6818561064c565b93506106c681856020860161065d565b6106cf81610690565b840191505092915050565b600060208201905081810360008301526106f481846106a1565b905092915050565b600081519050919050565b600082825260208201905092915050565b6000819050602082019050919050565b600073ffffffffffffffffffffffffffffffffffffffff82169050919050565b600061075382610728565b9050919050565b61076381610748565b82525050565b6000610775838361075a565b60208301905092915050565b6000602082019050919050565b6000610799826106fc565b6107a38185610707565b93506107ae83610718565b8060005b838110156107df5781516107c68882610769565b97506107d183610781565b9250506001810190506107b2565b5085935050505092915050565b60006020820190508181036000830152610806818461078e565b905092915050565b61081781610748565b82525050565b6000602082019050610832600083018461080e565b92915050565b6000819050919050565b61084b81610838565b82525050565b60006020820190506108666000830184610842565b92915050565b600080fd5b61087a81610748565b811461088557600080fd5b50565b60008135905061089781610871565b92915050565b6000602082840312156108b3576108b261086c565b5b60006108c184828501610888565b91505092915050565b60006108d582610728565b9050919050565b6108e5816108ca565b81146108f057600080fd5b50565b600081359050610902816108dc565b92915050565b61091181610838565b811461091c57600080fd5b50565b60008135905061092e81610908565b92915050565b6000806040838503121561094b5761094a61086c565b5b6000610959858286016108f3565b925050602061096a8582860161091f565b9150509250929050565b60006020828403121561098a5761098961086c565b5b6000610998848285016108f3565b91505092915050565b7f4e487b7100000000000000000000000000000000000000000000000000000000600052602260045260246000fd5b600060028204905060018216806109e857607f821691505b602082108114156109fc576109fb6109a1565b5b50919050565b7f4e487b7100000000000000000000000000000000000000000000000000000000600052601160045260246000fd5b6000610a3c82610838565b9150610a4783610838565b9250827fffffffffffffffffffffffffffffffffffffffffffffffffffffffffffffffff03821115610a7c57610a7b610a02565b5b828201905092915050565b7f4f6e6c79206f776e65722063616e2077697468647261772066756e64732e0000600082015250565b6000610abd601e8361064c565b9150610ac882610a87565b602082019050919050565b60006020820190508181036000830152610aec81610ab0565b905091905056fea26469706673582212209840a503d1995843547f5ce72b42970cf7537a87271afbe33156773a9a15728164736f6c634300080c0033",
  "linkReferences": {},
  "deployedLinkReferences": {}
}